S024000041746D656761333238705F536F6674776172655F44656275676765722E7372656376
S11300000C9434000C9451000C9451000C94510045
S11300100C9451000C9451000C9451000C94510018
S11300200C9451000C9451000C9451000C94510008
S11300300C9451000C9451000C9451000C945100F8
S11300400C9451000C9451000C94F7000C94510042
S11300500C9434010C9451000C9451000C945100F4
S11300600C9451000C94510011241FBECFEFD8E022
S1130070DEBFCDBF11E0A0E0B1E0EAE9F9E002C0E3
S113008005900D92A830B107D9F721E0A8E0B1E0BE
S113009001C01D92AC31B207E1F70E9453000C94E9
S11300A0CB040C9400000E94620078940E948500A6
S11300B02FE986E891E0215080409040E1F700C0AC
S11300C00000F4CFCF93DF9300D000D01F92CDB7C0
S11300D0DEB789E18A8319821B8288ED8C8386E0EE
S11300E08D83CE0101960E946B01E8E0F1E080E18E
S11300F091E01192E817F907E1F70F900F900F9034
S11301000F900F90DF91CF910895EF92FF920F938C
S11301101F93CF93DF9300D01F92CDB7DEB761E07A
S113012070E080E091E00E947C010E949F0188239E
S1130130E1F368E070E088E091E00E9492010E949F
S1130140AD018823E1F308E011E0F801828189839D
S113015083818A83CE0101960E94BB017C01F80150
S11301608481898385818A8386818B83CE010196EC
S11301700E94BB01F8019181973541F018F4923542
S113018041F025C0923729F0973709F5F7018083AC
S11301901EC0F70180811F928F9382E091E09F93AC
S11301A08F938E010F5F1F4F1F930F930E94E101E6
S11301B063E070E0C8010E947C010F900F900F90E3
S11301C00F900F900F900E949F018823E1F361E04C
S11301D070E085E091E00E947C010F900F900F90F9
S11301E0DF91CF911F910F91FF90EF9008951F928F
S11301F00F920FB60F9211242F933F934F935F9357
S11302008F939F93EF93FF938091C60040911001C9
S1130210509111012091120130911301421753079B
S1130220B0F48032A1F02091100130911101E091DD
S11302301401F0911501E20FF31F808380911001E6
S11302409091110101969093110180931001FF91F7
S1130250EF919F918F915F914F913F912F910F90CB
S11302600FBE0F901F9018951F920F920FB60F920A
S113027011242F933F938F939F93EF93FF93809138
S1130280160190911701019690931701809316011E
S11302902091160130911701809118019091190154
S11302A02817390768F48091160190911701E0919D
S11302B01A01F0911B01E80FF91F80818093C60099
S11302C0FF91EF919F918F913F912F910F900FBECE
S11302D00F901F901895FC0180818093C500818147
S11302E08093C40082818093C00083818093C10085
S11302F084818093C2000895DC0190931B01809354
S11303001A01709319016093180110921701109249
S11303101601E0ECF0E0908195FFFDCF8C91809385
S1130320C6000895909315018093140170931301EE
S113033060931201109211011092100108954091DE
S1130340160150911701209118013091190181E093
S11303504217530708F480E008954091100150912A
S11303601101209112013091130181E042175307CA
S113037008F480E00895FC0188279927E8942191E6
S11303802032E9F3293010F02E30C8F32B3241F03B
S11303902D3239F4689404C00E94D901820F911D52
S11303A0219120532A30C0F31EF4909581959F4FDC
S11303B008957AE0979F902D879F802D910D1124A9
S11303C00895AEE0B0E0E7EEF1E00C94A2040D89EC
S11303D01E8986E08C831A8309838FEF9FE79E83AF
S11303E08D83AE01475E5F4F6F89788DCE01019694
S11303F00E940302EF81F885E00FF11F10822E9610
S1130400E4E00C94BE04ABE0B0E0E9E0F2E00C946C
S113041094046C017B018A01FC011782168283819A
S113042081FFCCC1CE0101963C01F6019381F70115
S113043093FD859193FF81917F01882309F4BAC1CB
S1130440853239F493FD859193FF81917F01853243
S113045029F4B60190E00E94FA03E7CF912C212CF5
S1130460312CFFE1F315D8F08B3279F038F4803277
S113047079F08332A1F4232D20611DC08D3261F007
S1130480803369F4232D216016C0832D8260382EB9
S1130490E32DE4603E2E2AC0F32DF8601DC037FC26
S11304A02DC020ED280F2A3040F08E32B9F436FCEE
S11304B081C1232D2064322E19C036FE06C08AE085
S11304C0989E200D1124922E11C0EAE02E9E200D3C
S11304D01124222EF32DF0623F2E08C08C3621F415
S11304E0832D8068382E02C0883641F4F70193FDCD
S11304F0859193FF81917F018111B3CF982F9F7DC7
S11305009554933028F40C5F1F4F9FE399830DC0DB
S1130510833631F0833771F0833509F059C021C037
S1130520F801808189830E5F1F4F88248394912C66
S1130530530113C02801F2E04F0E511CF801A080B2
S1130540B18036FE03C0692D70E002C06FEF7FEF0B
S1130550C5010E94EF034C018201F32DFF773F2E6A
S113056016C0280122E0420E511CF801A080B1807F
S113057036FE03C0692D70E002C06FEF7FEFC50146
S11305800E94E4034C01F32DF0683F2E820133FCFA
S11305901BC0822D90E088169906B0F4B60180E263
S11305A090E00E94FA032A94F4CFF50137FC859178
S11305B037FE81915F01B60190E00E94FA03211099
S11305C02A9421E0821A91088114910471F7E8C0F9
S11305D0843611F0893641F5F80137FE07C0608191
S11305E07181828193810C5F1F4F08C0608171818A
S11305F0072E000C880B990B0E5F1F4FF32DFF760F
S11306003F2E97FF09C090958095709561957F4F17
S11306108F4F9F4FF0683F2E2AE030E0A3010E94E5
S11306203604882E861845C0853731F4232D2F7E55
S1130630B22E2AE030E025C0932D997FB92E8F3653
S1130640C1F018F4883579F0B5C0803719F08837CF
S113065021F0B0C0E92FE061BE2EB4FE0DC0FB2D29
S1130660F460BF2E09C034FE0AC0292F2660B22EC2
S113067006C028E030E005C020E130E002C020E1FF
S113068032E0F801B7FE07C06081718182819381F5
S11306900C5F1F4F06C06081718180E090E00E5FA7
S11306A01F4FA3010E943604882E8618FB2DFF7766
S11306B03F2E36FE0DC0232D2E7FA22E891458F412
S11306C034FE0BC032FC09C0832D8E7EA82E05C0DB
S11306D0B82CA32C03C0B82C01C0B92CA4FE0FC0A5
S11306E0FE01E80DF11D8081803321F49A2D997E5D
S11306F0A92E09C0A2FE06C0B394B39404C08A2DE7
S1130700867809F0B394A3FC11C0A0FE06C0B2140D
S113071088F4280C922C9B180EC0B21460F4B60115
S113072080E290E00E94FA03B394F7CFB21418F475
S11307302B1802C0982C212CA4FE10C0B60180E313
S113074090E00E94FA03A2FE17C0A1FC03C088E750
S113075090E002C088E590E0B6010CC08A2D86784E
S113076059F0A1FE02C08BE201C080E2A7FC8DE239
S1130770B60190E00E94FA03891438F4B60180E3CC
S113078090E00E94FA039A94F7CF8A94F301E80D5B
S1130790F11D8081B60190E00E94FA038110F5CF2B
S11307A0222009F442CEB60180E290E00E94FA03CE
S11307B02A94F6CFF6018681978102C08FEF9FEFCE
S11307C02B96E2E10C94B004FC010590615070405A
S11307D00110D8F7809590958E0F9F1F0895FC0106
S11307E06150704001900110D8F7809590958E0F5C
S11307F09F1F08950F931F93CF93DF93FB012381D2
S113080021FD03C08FEF9FEF2CC022FF16C046814D
S11308105781248135814217530744F4A081B18163
S11308209D012F5F3F4F318320838C932681378135
S11308302F5F3F4F3783268314C08B01EC01FB01EC
S11308400084F185E02D0995892BE1F6D8011696EF
S11308508D919C911797019617969C938E9316975A
S1130860CE01DF91CF911F910F910895FA01AA272C
S1130870283051F1203181F1E8946F936E7F6E5FDF
S11308807F4F8F4F9F4FAF4FB1E03ED0B4E03CD08D
S1130890670F781F891F9A1FA11D680F791F8A1F70
S11308A0911DA11D6A0F711D811D911DA11D20D0D7
S11308B009F468943F912AE0269F11243019305D91
S11308C03193DEF6CF010895462F4770405D419382
S11308D0B3E00FD0C9F7F6CF462F4F70405D4A33CF
S11308E018F0495D31FD4052419302D0A9F7EACF97
S11308F0B4E0A6959795879577956795BA95C9F7C6
S113090000976105710508959B01AC010A2E0694B8
S11309105795479537952795BA95C9F7620F731F71
S1130920841F951FA01D08952F923F924F925F92AE
S11309306F927F928F929F92AF92BF92CF92DF92EB
S1130940EF92FF920F931F93CF93DF93CDB7DEB750
S1130950CA1BDB0B0FB6F894DEBF0FBECDBF0994E4
S11309602A88398848885F846E847D848C849B843B
S1130970AA84B984C884DF80EE80FD800C811B8149
S1130980AA81B981CE0FD11D0FB6F894DEBF0FBE78
S10D0990CDBFED010895F894FFCFE8
S10B099A3E002564000D00007D
S9030000FC
